:100000000C9435000C945D000C945D000C945D0024
:100010000C945D000C945D000C945D000C945D00EC
:100020000C945D000C945D000C945D000C945D00DC
:100030000C945D000C945D000C945D000C945D00CC
:100040000C948D010C945D000C94FD010C94D7016F
:100050000C945D000C945D000C945D000C945D00AC
:100060000C945D000C945D00F80311241FBECFEFCB
:10007000D8E0DEBFCDBF13E0A0E0B1E0E0E9F8E0FA
:1000800002C005900D92A63EB107D9F727E0A6EE73
:10009000B3E001C01D92AC36B207E1F710E0C5E352
:1000A000D0E004C02197FE010E943B04C433D10775
:1000B000C9F70E942F020C9446040C940000CF92C2
:1000C000DF92EF92FF920F931F93CF93DF936C0118
:1000D0007A018B01C0E0D0E0CE15DF0589F0D801B0
:1000E0006D918D01D601ED91FC910190F081E02D93
:1000F000C6010995892B11F47E0102C02196ECCF2F
:10010000C701DF91CF911F910F91FF90EF90DF908A
:10011000CF900895089580E090E00895FC01538DFC
:10012000448D252F30E0842F90E0821B930B5417D1
:1001300010F0CF96089501970895FC01918D828D5E
:10014000981761F0828DDF01A80FB11D5D968C912B
:10015000928D9F5F9F73928F90E008958FEF9FEF36
:100160000895FC01918D828D981731F0828DE80FF2
:10017000F11D858D90E008958FEF9FEF0895FC01AC
:10018000918D228D892F90E0805C9F4F821B910979
:100190008F73992708958FEC96E00E94BF0021E0AD
:1001A000892B09F420E0822F0895FC01848DDF0162
:1001B000A80FB11DA35ABF4F2C91848D90E00196DA
:1001C0008F739927848FA689B7892C93A089B189C9
:1001D0008C9180648C93938D848D981306C00288D3
:1001E000F389E02D80818F7D80830895EF92FF92C7
:1001F0000F931F93CF93DF93EC0181E0888F9B8D4A
:100200008C8D981305C0E889F989808185FD24C00B
:10021000F62E0B8D10E00F5F1F4F0F731127E02E8E
:100220008C8DE8120CC00FB607FCFACFE889F9896B
:10023000808185FFF5CFCE010E94D500F1CF8B8D57
:10024000FE01E80FF11DE35AFF4FF0820B8FEA89A0
:10025000FB898081806207C0EE89FF896083E8891D
:10026000F98980818064808381E090E0DF91CF9183
:100270001F910F91FF90EF900895CF93DF93EC01C2
:10028000888D8823C9F0EA89FB89808185FD05C0B6
:10029000A889B9898C9186FD0FC00FB607FCF5CFF0
:1002A000808185FFF2CFA889B9898C9185FFEDCF38
:1002B000CE010E94D500E7CFDF91CF91089580E075
:1002C00090E0892B29F00E94CB0081110C94000052
:1002D0000895CF93DF93009779F0FC0101900020FF
:1002E000E9F73197AF01481B590BBC018FEC96E041
:1002F0000E945F00EC0102C0C0E0D0E042E050E0AC
:100300006BED73E08FEC96E00E945F008C0F9D1FF9
:10031000DF91CF9108950E9441041F920F920FB672
:100320000F9211242F933F938F939F93AF93BF937B
:100330008091CB069091CC06A091CD06B091CE06CF
:100340003091CA0623E0230F2D3720F40196A11D1A
:10035000B11D05C026E8230F0296A11DB11D2093F3
:10036000CA068093CB069093CC06A093CD06B0939B
:10037000CE068091C6069091C706A091C806B0919E
:10038000C9060196A11DB11D8093C6069093C706AC
:10039000A093C806B093C906BF91AF919F918F916A
:1003A0003F912F910F900FBE0F901F9018951F92A5
:1003B0000F920FB60F9211242F933F934F935F9399
:1003C0006F937F938F939F93AF93BF93EF93FF931D
:1003D0008FEC96E00E94D500FF91EF91BF91AF9115
:1003E0009F918F917F916F915F914F913F912F914D
:1003F0000F900FBE0F901F9018951F920F920FB67F
:100400000F9211242F938F939F93EF93FF93E0917B
:10041000DF06F091E0068081E091E506F091E606C6
:1004200082FD12C090818091E8068F5F8F732091CA
:10043000E906821751F0E091E806F0E0E153F94F48
:10044000958F8093E80601C08081FF91EF919F9185
:100450008F912F910F900FBE0F901F901895789449
:1004600084B5826084BD84B5816084BD85B58260B9
:1004700085BD85B5816085BD80916E00816080936A
:100480006E001092810080918100826080938100D3
:1004900080918100816080938100809180008160E3
:1004A000809380008091B10084608093B10080913E
:1004B000B00081608093B00080917A008460809366
:1004C0007A0080917A00826080937A0080917A002D
:1004D000816080937A0080917A00806880937A00AE
:1004E0001092C10087E1E0E0F1E0ADEFB3E00190F0
:1004F0000D928A95E1F787E1E7E1F1E0A4E1B4E04C
:1005000001900D928A95E1F787E1EEE2F1E0ABE22E
:10051000B4E001900D928A95E1F787E1E5E4F1E01E
:10052000A2E4B4E001900D928A95E1F787E1ECE551
:10053000F1E0A9E5B4E001900D928A95E1F787E139
:10054000E3E7F1E0A0E7B4E001900D928A95E1F7CE
:1005500087E1EAE8F1E0A7E8B4E001900D928A951E
:10056000E1F787E1E1EAF1E0AEE9B4E001900D9254
:100570008A95E1F787E1E8EBF1E0A5EBB4E00190C3
:100580000D928A95E1F787E1EFECF1E0ACECB4E095
:1005900001900D928A95E1F787E1E6EEF1E0A3EE96
:1005A000B4E001900D928A95E1F787E1EDEFF1E07B
:1005B000AAEFB4E001900D928A95E1F787E1E4E1BA
:1005C000F2E0A1E1B5E001900D928A95E1F787E1B3
:1005D000EBE2F2E0A8E2B5E001900D928A95E1F736
:1005E00087E1E2E4F2E0AFE3B5E001900D928A9595
:1005F000E1F787E1E9E5F2E0A6E5B5E001900D92CB
:100600008A95E1F787E1E0E7F2E0ADE6B5E0019039
:100610000D928A95E1F787E1E7E8F2E0A4E8B5E01A
:1006200001900D928A95E1F787E1EEE9F2E0ABE9FE
:10063000B5E001900D928A95E1F787E1E5EBF2E0F4
:10064000A2EBB5E001900D928A95E1F787E1ECEC21
:10065000F2E0A9ECB5E001900D928A95E1F787E10F
:10066000E3EEF2E0A0EEB5E001900D928A95E1F79D
:1006700087E1EAEFF2E0A7EFB5E001900D928A95ED
:10068000E1F787E1E1E1F3E0AEE0B6E001900D9241
:100690008A95E1F787E1E8E2F3E0A5E2B6E00190B0
:1006A0000D928A95E1F787E1EFE3F3E0ACE3B6E082
:1006B00001900D928A95E1F787E1E6E5F3E0A3E585
:1006C000B6E001900D928A95E1F787E1EDE6F3E05F
:1006D000AAE6B6E001900D928A95E1F787E1E4E899
:1006E000F3E0A1E8B6E001900D928A95E1F787E189
:1006F000EBE9F3E0A8E9B6E001900D928A95E1F705
:1007000087E1E2EBF3E0AFEAB6E001900D928A9563
:10071000E1F7E091DF06F091E00682E08083E0916E
:10072000DB06F091DC061082E091DD06F091DE063A
:100730008FEC80831092E706E091E306F091E406E7
:1007400086E08083E091E106F091E206808180619D
:100750008083E091E106F091E206808188608083E9
:10076000E091E106F091E206808180688083E0916B
:10077000E106F091E20680818F7D80838EED93E02B
:100780000E9469010DEF13E0CAE0D0E0F801619129
:100790008F01CE010E942D042196C33DF2E0DF07B8
:1007A000A9F780E090E08C010A960E942504E801F8
:1007B0006796833249F087EE93E00E946901CE018B
:1007C000C93CD24081F711C086EEE82E83E0F82EB6
:1007D0000C171D0780F7C8010A960E942504F7012F
:1007E00081937F010F5F1F4FF3CF0E945F01FDCF09
:1007F000EFECF6E01382128288EE93E0A0E0B0E026
:1008000084839583A683B7838DEC93E09183808363
:1008100085EC90E09587848784EC90E097878687C5
:1008200080EC90E0918B808B81EC90E0938B828BBD
:1008300082EC90E0958B848B86EC90E0978B868B96
:10084000118E128E138E148E0895F999FECF92BDDB
:1008500081BDF89A992780B50895262FF999FECF82
:100860001FBA92BD81BD20BD0FB6F894FA9AF99ACD
:100870000FBE01960895EE0FFF1F0590F491E02D35
:10088000099481E090E0F8940C944604F894FFCF2A
:100890002350493355545200494A7373656C73743D
:1008A00065696E007E040023504933414C4B004182
:1008B0006C6B6D616172202020200080080823503D
:1008C00049335A564C004F766572736C616720202D
:1008D0002000800000235049335457450045696289
:1008E000657267656E202020008004042350493320
:1008F0005352540056656E6C6F202020202020003B
:100900008002022350493341504D00417070696E9E
:1009100067656E64616D0081060623504933424F5E
:100920005A0042657267656E2F5A6F6F6D008208BC
:1009300008235049335A4F4400456D6D656E2020A1
:10094000202020200082000023504933414D4600E2
:10095000416D657273666F6F7274200082000023B0
:1009600050493346524C004C656575776172646539
:100970006E2000830606235049335A5554005A7599
:10098000747068656E202020200083000023504989
:10099000334D4550004D657070656C20202020203F
:1009A0000084060623504933425244004272656473
:1009B0006120202020202000840202235049335649
:1009C0004C4900566C697373696E67656E200085CB
:1009D00008082350493352544400526F74746572AE
:1009E00064616D202000860808235049334E4F561D
:1009F000002774204861726465202020008604046A
:100A0000235049335648500056726F6F6D73686FAC
:100A10006F70200087040423504933594D44004926
:100A20004A6D756964656E20202000870808235090
:100A3000493348564E0048656572656E7665656E49
:100A40002000880606235049334548560045696E04
:100A500064686F76656E2020008802022350493357
:100A600044544300446F6574696E6368656D20008B
:100A7000880404235049335A415A00576F726D65F8
:100A80007276656572200089080823504933474F04
:100A90004500476F657320202020202020008A0811
:100AA0000823504933415044004170656C646F6FB6
:100AB000726E2020008A0404235049335A4C4200AD
:100AC00047656C65656E2020202020008A02022385
:100AD000504933464C44004C656C79737461642012
:100AE0002020008B0404235049334E594D004E6999
:100AF0006A6D6567656E202020008C0404235049D0
:100B00003347524E0047726F6E696E67656E2020E4
:100B1000008C06062350493352415A005A6F6574BF
:100B200065726D65657220008C0808235049334159
:100B30004C4D00416C6D6572652020202020008D99
:100B400000002350493341534400416D7374657272
:100B500064616D2020008E080800000000F6005F30
:100B6000008E003D01BF009D00B1000D0A005374CE
:060B70006172746564006F
:00000001FF
